:020000040800F2
:1000000000200020BD0C0008610300086303000805
:1000100000000000000000000000000000000000E0
:100020000000000000000000000000006503000860
:1000300000000000000000006703000869030008DA
:100040000D0D00080D0D00080D0D00080D0D000828
:100050000D0D00080D0D00080D0D00080D0D000818
:100060000D0D00080D0D00080D0D00080D0D000808
:100070000D0D00080D0D00080D0D00080D0D0008F8
:100080000D0D00080D0D0008000000000D0D00080A
:100090000D0D00080D0D00080D0D00080D0D0008D8
:1000A0000D0D00080D0D00080D0D00080D0D0008C8
:1000B0000D0D0008000000000D0D000800000000FC
:1000C00010B5064C2378002B07D1054B002B02D02E
:1000D000044800E000BF0123237010BD6800002029
:1000E00000000000441C0008044B10B5002B03D096
:1000F0000349044800E000BF10BDC04600000000F6
:100100006C000020441C000803B4714649084000FC
:100110004900095E49008E4403BC70470022430831
:100120008B4274D303098B425FD3030A8B4244D3BF
:10013000030B8B4228D3030C8B420DD3FF22090201
:1001400012BA030C8B4202D31212090265D0030BC0
:100150008B4219D300E0090AC30B8B4201D3CB03B6
:10016000C01A5241830B8B4201D38B03C01A5241F8
:10017000430B8B4201D34B03C01A5241030B8B42FA
:1001800001D30B03C01A5241C30A8B4201D3CB02E5
:10019000C01A5241830A8B4201D38B02C01A5241CA
:1001A000430A8B4201D34B02C01A5241030A8B42CD
:1001B00001D30B02C01A5241CDD2C3098B4201D3E5
:1001C000CB01C01A524183098B4201D38B01C01A63
:1001D000524143098B4201D34B01C01A52410309DA
:1001E0008B4201D30B01C01A5241C3088B4201D389
:1001F000CB00C01A524183088B4201D38B00C01A36
:10020000524143088B4201D34B00C01A5241411A5C
:1002100000D20146524110467047FFE701B5002069
:1002200000F006F802BDC0460029F7D076E7704717
:100230007047C04610B588B01422002103A800F012
:1002400087FE134B5A698021C9020A435A615A69D1
:100250000A400192019A5A69802189020A435A612F
:100260005B690B400293029B0A4C00220321200091
:1002700000F0C8FC03230393023B0493002305937F
:10028000069303A9200000F0F9FB08B010BDC0469A
:10029000001002400004004872B6FEE700B591B0BD
:1002A0003022002104A800F053FE102200216846ED
:1002B00000F04EFE02230493013B07930F33089393
:1002C00004A800F06DF800280DD107230093002347
:1002D0000193029303930021684600F0D9FA0028A5
:1002E00003D111B000BDFFF7D7FFFFF7D5FF000026
:1002F00070B500F08FFBFFF7D1FFFFF79BFF124CAB
:10030000636901221343636100F0A0FB0F4E30606C
:100310000F4D280000F0A0FB0E4800F0BDFD00F0DE
:1003200095FB0D4B18603368C01A0C4B186063695D
:10033000022213436361280000F08EFB63690322ED
:1003400093436361FEE7C046000400488C00002030
:10035000881300005C1C0008880000208400002036
:10036000FEE7FEE77047704710B500F063FB10BD75
:1003700082B00A4B996901221143996199690A4037
:100380000092009ADA69802149050A43DA61DB6943
:100390000B400193019B02B07047C0460010024021
:1003A00070B582B0041E00D12EE20368DB0726D5AB
:1003B000AE4B5A680C231340042B18D0AB4B5A6831
:1003C0000C231340082B0ED06368012B3CD0002B6C
:1003D00051D1A64B1A68A6490A401A601A68A54965
:1003E0000A401A6036E0A14B5B68DB03ECD59F4BFB
:1003F0001B689B0303D56368002B00D107E22368C9
:100400009B0772D5994B5B680C221A425DD0974BC3
:100410005A680C231340082B53D0E368002B00D1FB
:1004200085E0924A136801210B43136000F00EFB34
:1004300005008E4B1B689B0770D400F007FB401B28
:100440000228F6D90320E0E1884A116880235B0284
:100450000B4313606368002B25D000F0F7FA05000A
:10046000824B1B689B03CAD400F0F0FA401B64283F
:10047000F6D90320C9E1052B09D07C4B1A687C49C9
:100480000A401A601A687B490A401A60E2E7774B13
:1004900019688022D2020A431A6019688022520227
:1004A0000A431A60D6E700F0D1FA05006F4B1B68CB
:1004B0009B03A4D500F0CAFA401B6428F6D9032098
:1004C000A3E16A4B5B68DB03A7D4684B1B689B07FF
:1004D00003D5E368012B00D09BE164490B68F82247
:1004E00093432269D20013430B6023681B0744D552
:1004F000E369002B2ED05D4A536A01210B435362FE
:1005000000F0A4FA0500594B5B6A9B0735D400F054
:100510009DFA401B0228F6D9032076E153490B6867
:10052000F82293432269D20013430B60DDE74F4A60
:10053000136801218B43136000F088FA05004B4BD0
:100540001B689B07D1D500F081FA401B0228F6D921
:1005500003205AE1454A536A01218B43536200F05C
:1005600075FA0500414B5B6A9B0706D500F06EFAF1
:10057000401B0228F6D9032047E123685B0700D41B
:1005800080E03A4BDB69DB001DD4384BDA6980210F
:1005900049050A43DA61DB690B400193019B0125A0
:1005A000354B1B68DB0510D5A368012B21D0002B30
:1005B00036D12E4B1A6A01218A431A621A6A033114
:1005C0008A431A621AE00025EAE72B4A1168802361
:1005D0005B000B43136000F039FA0600264B1B68E2
:1005E000DB05E1D400F032FA801B6428F6D9032041
:1005F0000BE11E4A136A01210B431362A368002B0F
:1006000024D000F023FA0600184B1B6A9B0737D44E
:1006100000F01CFA801B194B9842F5D90320F4E036
:10062000052B09D0114B1A6A01218A431A621A6AF2
:1006300003318A431A62E1E70C4B1A6A04210A4328
:100640001A621A6A03390A431A62D7E700F0FEF900
:100650000600064B1B6A9B0712D500F0F7F9801BBA
:10066000064B9842F5D90320CFE0C0460010024067
:10067000FFFFFEFFFFFFFBFF00700040881300003C
:10068000012D33D02368DB0610D56369012B33D0ED
:10069000053351D1654A536B04218B435363536B2C
:1006A000F4318B43A169C9000B435363236A002BC8
:1006B00000D1B0E05D4A51680C220A40082A00D1FE
:1006C0008AE0022B4FD0594A136859490B401360F6
:1006D00000F0BCF90400554B1B689B017AD500F073
:1006E000B5F9001B0228F6D903208EE04F4AD369E2
:1006F00050490B40D361C5E74C4B5A6B04210A4368
:100700005A635A6B03390A435A6300F09FF9050094
:10071000464B5B6B9B0706D400F098F9401B022800
:10072000F6D9032071E041494B6BF8229343A2694B
:10073000D20013434B63B9E73C4B5A6B04210A4385
:100740005A635A6B03398A435A6300F07FF90500F4
:10075000364B5B6B9B07A9D500F078F9401B02284C
:10076000F6D9032051E0314A136831490B40136038
:1007700000F06CF905002D4B1B689B0106D500F0BD
:1007800065F9401B0228F6D903203EE0274BDA6AC0
:100790000F218A43E16A0A43DA625A6826490A400D
:1007A000A16A606A01430A435A60196880225204B0
:1007B0000A431A6000F04AF904001C4B1B689B01B5
:1007C00006D400F043F9001B0228F6D903201CE0F0
:1007D00000201AE0002018E0012B1ED0134B5A68AD
:1007E000D86A80235B021340616A8B4217D10F23C2
:1007F0000340E16A8B4214D1F0239B031A40A36AA1
:100800009A4210D1002000E0012002B070BD01200A
:10081000FBE70120F9E70020F7E70120F5E70120D9
:10082000F3E70120F1E70120EFE7C04600100240A6
:10083000FFFFFFFEFFFFFFEFFFFFC2FF10B5104BF2
:100840005A680C231340082B01D00E4810BD910CA0
:10085000073319400C48445C0949C96A0B400B49ED
:10086000C95CD20304D50748FFF758FC6043EDE7A5
:100870006201121B93019B1ADB001B191802E5E7AA
:100880000010024000127A007C1C00086C1C00085A
:1008900070B504000D00002800D17EE0434B1A68BB
:1008A000012313408B420AD240490B680122934333
:1008B0002B430B600B681A40AA4200D06FE02368FC
:1008C0009A070ED55B0705D5394A5168E023DB004E
:1008D0000B435360364A5368F0218B43A1680B43A6
:1008E00053602368DB072DD56368012B1ED0022BD4
:1008F00022D02F4A1268920753D52D494A68032007
:10090000824313434B6000F0A1F80600284B5B685C
:100910000C221A4063689B009A4213D000F096F8AC
:10092000801B244B9842F1D9032035E0204A1268FD
:100930009203E2D401202FE01D4A12689201DCD418
:10094000012029E0194B1A6801231340AB4209D951
:1009500016490B68012293432B430B600B681A4026
:10096000AA4220D123685B0706D5114A5368124971
:100970000B40E1680B435360FFF760FF0C4B5A6874
:1009800012090F2313400D4AD35CD8400C4B18605A
:10099000032000F017F8002070BD0120FCE70120C3
:1009A000FAE70120F8E70120F6E7C0460020024000
:1009B0000010024088130000FFF8FFFF8C1C0008A5
:1009C0000800002010B504000F4B1978FA208000B1
:1009D000FFF7A4FB01000D4B1868FFF79FFB00F029
:1009E00067F900280DD1032C01D901200AE001305C
:1009F00000222100404200F057F9054B1C60002006
:100A000000E0012010BDC0460000002008000020CA
:100A10000400002010B5064A136810210B43136030
:100A20000320FFF7CFFFFFF7A3FC002010BDC04657
:100A300000200240034A1168034B1B785B181360C7
:100A40007047C0469000002000000020014B18684D
:100A50007047C0469000002070B50400FFF7F6FF15
:100A60000500631C02D0044B1B78E418FFF7EEFF6F
:100A7000401BA042FAD370BD00000020F0B583B047
:100A8000002356E086685F000324BC40A643CC6880
:100A9000BC4034438460446894434E683609012264
:100AA00032409A402243426053E0DE080836B600E6
:100AB000375805321A4092000F249440A7430C691E
:100AC000944022003A43325056E0032600E00026CC
:100AD000A64034003C4302329200444E9451444AB2
:100AE0009768EA433E00AE434C68E40201D53E00FD
:100AF0002E433F4CA660E7683E0016404C68A402B7
:100B000001D53E002E433A4CE66067683E00164031
:100B10004C68A40301D53E002E43354C6660266820
:100B200032404C68E40301D52A003243304C226045
:100B300001330C682200DA4056D001229A40250089
:100B400015401442F4D04E6803243440013C012C7B
:100B500098D94C6803222240032A08D0C4685E005A
:100B60000322B24094438A68B2402243C2604C6878
:100B700003222240022A98D004685E000322170054
:100B8000B740BC434F683A40B240224302604C68D1
:100B9000C02292021442CBD0164CA6690122164301
:100BA000A661A46922400192019A9A08941CA400AB
:100BB0000E4EA75903241C40A4000F26A640B7439D
:100BC0009026F605B04282D00B4EB04208D00B4EB4
:100BD000B04207D00A4EB04200D176E7052677E74B
:100BE000012675E7022673E703B0F0BD000001405F
:100BF00000040140001002400004004800080048C2
:100C0000000C0048002A01D0816170478162FCE736
:100C100070B5002811DB8308134DC0339B005C596D
:100C200003221040C000FC3216008640B443890104
:100C30000A40824022435A5170BD0F230340083BB3
:100C40009B0806339B00094A944663445C68032270
:100C50001040C000FC3215008540AC4389010A40B9
:100C6000824022435A60E7E700E100E000ED00E047
:100C7000013880235B0498420FD2094A506009482A
:100C8000036A1B021B0AC02109060B4303620023EF
:100C9000936007331360002070470120FCE7C046D3
:100CA00010E000E000ED00E010B5FFF7B1FF10BD6F
:100CB00010B5FFF7DDFF10BD704700000D488546F9
:100CC000FFF7FAFF0C480D490D4A002302E0D45803
:100CD000C4500433C4188C42F9D30A4A0A4C002386
:100CE00001E013600432A242FBD300F087F9FFF762
:100CF000FFFAFEE70020002000000020680000202E
:100D0000D81C000868000020E4010020FEE7000075
:100D1000002310B504000360436083608181436653
:100D2000C281036143618361190008225C3000F0D5
:100D30000FF90B4B246263620A4BA3620A4BE36216
:100D40000A4B23630A4B9C4205D00A4B9C4202D0BB
:100D5000094B9C4203D12000583000F073F910BDBC
:100D6000B90E0008E10E0008190F0008450F000831
:100D700094000020FC0000206401002010B5034A0C
:100D80000349044800F06CF810BDC0460C00002078
:100D9000D11800081C00002041680B4B10B504005E
:100DA000994201D000F094FDA168084B994202D00D
:100DB000200000F08DFDE168054B994202D0200033
:100DC00000F086FD10BDC04694000020FC0000200D
:100DD0006401002010B5094B094A04211A60094832
:100DE0000022FFF795FF012209210748FFF790FF36
:100DF000022212210548FFF78BFF10BDCC01002015
:100E00007D0D000894000020FC00002064010020FB
:100E100010B5024800F017F910BDC046D5010020FA
:100E200010B5024800F010F910BDC046D5010020F1
:100E300010B50400FFF7ECFF236A002B02D0FFF788
:100E4000EFFF10BD044B2362044B1B68002BF6D14F
:100E5000FFF7C0FFF3E7C046990D0008CC01002062
:100E6000F7B51400002600900191A5686768013F5E
:100E700004D52468002CF8D13000FEBDAB89012BCD
:100E800008D90E22AB5E013304D029000098019BE3
:100E9000984706436835EAE70FB407B5054904AB40
:100EA000086804CB8168019300F0F4F903B008BC32
:100EB00004B018471800002070B50C000E25495FDB
:100EC00000F074F8002803DB636D1B18636570BDC8
:100ED000A389024A1340A381F9E7C046FFEFFFFF51
:100EE000F8B51F008B8905000C001600DB0505D541
:100EF0000E23C95E0022022300F044F8A389054AAC
:100F000028001340A38132000E23E15E3B0000F075
:100F100061F8F8BDFFEFFFFF70B50C000E25495FCB
:100F200000F030F8A389421C03D1054A1340A38185
:100F300070BD802252011343A3816065F8E7C0466B
:100F4000FFEFFFFF10B50E23C95E00F009F810BDDA
:100F500003008218934200D1704719700133F9E7FA
:100F6000002370B5064D040008002B6000F02AFE37
:100F7000431C03D12B68002B00D0236070BDC046FA
:100F8000D001002070B50400080011001A000023F1
:100F9000054D2B6000F02EFE431C03D12B68002B67
:100FA00000D0236070BDC046D001002070B50400A1
:100FB000080011001A000023054D2B6000F022FEEE
:100FC000431C03D12B68002B00D0236070BDC046AA
:100FD000D001002070B50400080011001A000023A1
:100FE000054D2B6000F026FE431C03D12B68002B1F
:100FF00000D0236070BDC046D001002070B500262F
:101000000C4C0D4D641BA410A64209D1002600F023
:1010100019FE0A4C0A4D641BA410A64205D170BDEE
:10102000B300EB5898470136EEE7B300EB5898470A
:101030000136F2E7D01C0008D01C0008D41C0008C0
:10104000D01C0008704770477047000070B505005D
:101050000C1E10D0043C2368002B00DAE418280092
:1010600000F0E0F81D4A1368002B05D1636014609E
:10107000280000F0DFF870BDA34208D920682118CD
:101080008B42F3D119685B6809182160EEE71A00FA
:101090005B68002B01D0A342F9D911685018A04217
:1010A0000BD120680918501811608342E0D11868EC
:1010B0005B68411811605360DAE7A04202D90C2343
:1010C0002B60D5E7206821188B4203D119685B6833
:1010D0000918216063605460CAE7C046DC01002043
:1010E00070B50F4E0D0031680400002902D100F0E8
:1010F000BBFC30602900200000F0B6FC431C03D18B
:1011000001256D42280070BD0323C51C9D43A842E4
:10111000F8D0291A200000F0A7FC0130F2D1EFE747
:10112000D8010020F7B50322CB1C934308330500F8
:101130001F000C2B34D20C27B94233D8280000F002
:1011400071F8374E33681C00002C2FD1390028006D
:10115000FFF7C6FF0400431C5FD134680094009B76
:10116000002B4AD1002C52D023682800E3180099A4
:10117000019300F079FC019B834248D12368280049
:10118000FF1A3900FFF7ACFF013040D02368DB19AC
:10119000236033685A68002A33D1009B336019E01A
:1011A000002BC9DA0C232B600020FEBD2168C91B6F
:1011B00020D40B290AD9E2192760A34204D1326056
:1011C00063681160536005E05A60F9E76268A34202
:1011D0000ED13260280000F02DF8200007220B30DD
:1011E000231D9043C21A9842DFD01B1AA350DCE79C
:1011F0005A60EFE723006468A6E7009C63680093E9
:10120000ADE71A005B68A342FBD10023DAE70C23A9
:1012100028002B6000F00EF8C6E70760DAE7C0464A
:10122000DC01002010B50248FFF70DFF10BDC046DD
:10123000D401002010B50248FFF706FF10BDC046DC
:10124000D4010020936810B5013B9360002B04DAB1
:101250009469A34207DB0A2905D01368581C106063
:101260001970080010BD00F05EFB0100F9E7F8B549
:1012700006000F001400D518AC4201D1002007E091
:1012800021783A003000FFF7DDFF0134431CF3D131
:10129000F8BD0000F0B5A1B00F0015001E000390CE
:1012A000002804D0036A002B01D1FFF7C1FD7B6E3B
:1012B000DB0705D4BB899B0502D4B86DFFF7C3FEDD
:1012C000BB891B0702D53B69002B13D1390003985A
:1012D00000F06CFB00280DD07B6EDB0703D50120EE
:1012E000404221B0F0BDBB899B05F8D4B86DFFF733
:1012F000ABFEF4E7002308AC636120336376103360
:10130000A37607962E003378002B01D0252B48D1E9
:10131000731B0593AE420BD02A0039000398FFF7E8
:10132000A6FF013000D1AEE06369059A9B186361A6
:101330003378002B00D1A6E00122002352426260E4
:1013400004A954325218751C2360E360A360137023
:10135000A365594B052218002978059300F096FBE8
:101360006E1C00281FD12268D30604D5532304A97C
:101370005B1820211970130704D5532304A95B18A7
:101380002B2119702B782A2B16D02E0000210A2031
:10139000E3683278751C303A092A50D9002911D1F6
:1013A00017E00136AFE7059B2268C01A012383408E
:1013B000134335002360CCE7079B191D1B68079179
:1013C000002B01DB0B9304E05B42E3600223134339
:1013D000236033782E2B0CD173782A2B34D1079BC2
:1013E00002361A1D1B680792002B01DA01235B42AB
:1013F0000993324D03222800317800F047FB002882
:1014000006D04023401B83402268013613432360EB
:10141000317806222A48751C217600F037FB002817
:1014200040D0284B002B22D10722079B0733934340
:10143000083307936369049A9B18636162E7434327
:101440002E0001219B18A4E700230A201900013671
:1014500063603278751C303A092A03D9002BC8D052
:101460000991C6E741432E0001238918F1E707AA35
:10147000009221003A00144B039800E000BF049052
:10148000049B0133D6D17B6EDB0705D4BB899B055A
:1014900002D4B86DFFF7D8FDBB895B0600D51EE707
:1014A0000D981EE707AA009221003A00064B039808
:1014B00000F07CF8E3E7C0469C1C0008A21C000872
:1014C000A61C0008000000006F120008F7B5160007
:1014D00001938A680B690C000090934200DA1300B4
:1014E0002200336043321278002A01D00133336086
:1014F00023689B0602D533680233336022680623D3
:1015000015001D401A4227D0230043331B785A1E72
:1015100093412268920630D4220001990098089DD8
:101520004332A847013025D0062223680025134006
:10153000042B05D13368E568ED1AEB43DB171D403A
:10154000A3682269934201DD9B1AED180026B5427B
:1015500020D1002010E00135E36832689B1AAB42CD
:10156000D2DD2200012301990098089F1932B84763
:101570000130F0D101204042FEBD3020E11843315E
:10158000087021005A1C45310978A21843320233F1
:101590001170C1E72200012301990098089F1A32B7
:1015A000B8470130E6D00136D1E70000F0B58BB086
:1015B00006920A0043320793059003920A7E0C00BC
:1015C000109B782A09D8622A0BD8002A00D1BAE0E9
:1015D0007A490491582A00D18EE0250042352A70BC
:1015E00022E0100063381528F7D8FEF78DFD1600AD
:1015F0001F00F6FFF6FFF6FFF6FF1F00F6FFF6FFEF
:10160000F6FFF6FF9F0036007E00F6FFF6FFB00003
:10161000F6FF3600F6FFF6FF820025001A68423515
:10162000111D196013682B7001239EE0186809686A
:10163000021D0D060BD506681A60002E03DA2D2355
:10164000039A764213705D4B0A27049318E00668EC
:101650001A604906F1D536B2EFE70868196840C943
:10166000050602D4400600D5B6B21960534B0A27CE
:1016700004936F2A00D1023F2300002243331A70E3
:101680006368A360002B06DB04212268039D8A4364
:10169000226033430CD0039D30003900FEF7C4FDB7
:1016A000049B013D5B5C2B70330006009F42F3D925
:1016B000082F09D12368DB0706D5626823699A429F
:1016C00002DC3023013D2B70039B5B1B2361079BD6
:1016D000210000930598069B09AAFFF7F7FE013049
:1016E00048D1012040420BB0F0BD202209680A43D6
:1016F0002260782232490491210045310A7019682C
:10170000226840C9100602D4500600D5B6B219604E
:10171000D30702D5202313432360002E01D01027C6
:10172000AAE72022236893432360F8E71A680D682C
:10173000101D4969186013682E0601D5196002E072
:101740006D06FBD519800023039D2361BFE71A684E
:10175000111D1960156800212800626800F096F9D3
:10176000002801D0401B6060636823610023039A56
:101770001370ACE72A00236906990598079DA847CE
:101780000130AED023689B0715D4099BE0689842CE
:10179000A9DA1800A7E72200012306990598079EF9
:1017A0001932B04701309CD00135E368099A9B1A81
:1017B000AB42F0DCE9E70025F7E7C046AD1C0008C6
:1017C000BE1C0008F7B50C228B5E05000C001A0742
:1017D00056D44A68002A02DC0A6C002A4EDDE76A09
:1017E000002F4BD0002280202E682A601A00400172
:1017F000216A0240034233D0626DA3895B0706D59C
:101800006368D21A636B002B01D0236CD21A0023B9
:101810002800E76A216AB847A289431C06D12968D3
:101820001D2946D8294BCB40DB0742D500236360F6
:1018300023692360D20405D5431C02D12B68002BF9
:1018400000D16065616B2E60002917D023004433FE
:10185000994202D02800FFF7F9FB002363630DE0F3
:1018600001232800B8470200431CC6D12B68002B77
:10187000C3D01D2B01D0162B1AD12E6000201EE0E4
:101880000E69002EFAD00F680E60BA1B019200227A
:101890009B0700D14A69A260019B002BEEDDA36A81
:1018A00032001F002800019B216AB847002807DC8E
:1018B000A2894023012013431BB2A3814042FEBDF5
:1018C000019B36181B1A0193E6E7C0460100402031
:1018D0000B6970B505000C00002B02D10025280013
:1018E00070BD002804D0036A002B01D1FFF7A0FAD5
:1018F0000C22A35E002BF1D0626ED20704D49B05AC
:1019000002D4A06DFFF79FFB28002100FFF75AFFCC
:10191000636E0500DB07E2D4A3899B05DFD4A06DCD
:10192000FFF792FBDBE7F8B506000D001400002876
:1019300004D0036A002B01D1FFF77AFAA369A360F0
:10194000A3891B0702D52369002B09D12100300090
:1019500000F02CF8002803D001256D422800F8BDC6
:1019600023692068EFB2C01A6369EDB2834205DCD7
:1019700021003000FFF7ACFF0028EDD1A368013053
:10198000013BA36023685A1C22601F706369834275
:1019900004D0A389DB07E1D50A2DDFD12100300077
:1019A000FFF796FF0028D9D0D6E700002D4B70B581
:1019B000050018680C00002804D0036A002B01D130
:1019C000FFF736FA0C22A35E1A0723D4DA0607D4EF
:1019D00009222A60402201201343A38140423AE0B9
:1019E0005B0713D5616B002908D02300443399426B
:1019F00002D02800FFF72AFB002363632422A38977
:101A00009343A38100236360236923600823A28991
:101A10001343A3812369002B0BD1A0218022A3892A
:101A2000890092000B40934203D02100280000F06F
:101A300063F80C22A35E01211A000A400B420BD06E
:101A40000022A26062695242A261002022698242A1
:101A500001D11A06BED470BD990700D46269A26094
:101A6000F3E7C04618000020002370B5064D0400BF
:101A700008002B6000F0CEF8431C03D12B68002B2C
:101A800000D0236070BDC046D0010020C9B28218CA
:101A9000904201D10020704703788B42FBD0013087
:101AA000F6E7000070B50E001D000E23C95E14009D
:101AB00096B000290CDAB2898023110019401A422D
:101AC00014D18023DB0000202960236016B070BD94
:101AD0006A4600F053F80028EDDBF02301991B0261
:101AE0001940044BC9184B425941EAE700214023F1
:101AF000E9E7C04600E0FFFFF0B502268B8905004C
:101B00000C0085B0334207D02300473323602361A4
:101B10000123636105B0F0BD03AB02AAFFF7C2FF6A
:101B2000029F019039002800FFF7FCFA002808D135
:101B30000C22A35E9A05EDD4032293431E43A68193
:101B4000E2E78023A28920601343A381039B2061E5
:101B50006761002B0CD028000E23E15E00F020F816
:101B6000002805D00323A2899A43023B1343A38193
:101B7000A389019A1343A381CCE70000002370B529
:101B8000064D0400080011002B6000F023F8431CF0
:101B900003D12B68002B00D0236070BDD001002042
:101BA000002370B5064D040008002B6000F01AF801
:101BB000431C03D12B68002B00D0236070BDC046AE
:101BC000D001002058220120014B40421A6070478A
:101BD000D001002058220120014B40421A6070477A
:101BE000D00100205822024B00201A607047C046E6
:101BF000D001002058220120014B40421A6070475A
:101C0000D001002058220120014B40421A60704749
:101C1000D0010020054A03001168002901D10449C0
:101C200011601068C31813607047C046E0010020BF
:101C3000E801002058220120014B40421A60704701
:101C4000D0010020F8B5C046F8BC08BC9E467047DD
:0C1C5000F8B5C046F8BC08BC9E467047C2
:101C5C0035207365636F6E642064656C6179000078
:101C6C000102030405060708090A0B0C0D0E0F10E0
:101C7C0002030405060708090A0B0C0D0E0F1010C1
:101C8C000000000000000000010203040607080920
:101C9C00232D302B2000686C4C0065666745464749
:101CAC0000303132333435363738394142434445CC
:101CBC00460030313233343536373839616263643B
:041CCC006566000049
:041CD000E90000081F
:041CD400C100000843
:101CD800010000000400000000127A00000000006B
:101CE80003000000940000201C00002000000000F9
:101CF80094000020FC000020640100200000000087
:101D080000000000000000000000000000000000CB
:101D180000000000000000000000000000000000BB
:101D280000000000000000000000000000000000AB
:081D38000000000000000000A3
:0400000508000CBD26
:00000001FF
